{
    "_format": "hh-sol-artifact-1",
    "contractName": "WavePortal",
    "sourceName": "contracts/WavePortal.sol",
    "abi": [
        {
            "inputs": [],
            "stateMutability": "payable",
            "type": "constructor"
        },
        {
            "anonymous": false,
            "inputs": [
                {
                    "indexed": true,
                    "internalType": "address",
                    "name": "from",
                    "type": "address"
                },
                {
                    "indexed": false,
                    "internalType": "uint256",
                    "name": "timestamp",
                    "type": "uint256"
                },
                {
                    "indexed": false,
                    "internalType": "string",
                    "name": "message",
                    "type": "string"
                }
            ],
            "name": "NewWave",
            "type": "event"
        },
        {
            "inputs": [],
            "name": "getAllWaves",
            "outputs": [
                {
                    "components": [
                        {
                            "internalType": "address",
                            "name": "waver",
                            "type": "address"
                        },
                        {
                            "internalType": "string",
                            "name": "message",
                            "type": "string"
                        },
                        {
                            "internalType": "uint256",
                            "name": "timestamp",
                            "type": "uint256"
                        }
                    ],
                    "internalType": "struct WavePortal.Wave[]",
                    "name": "",
                    "type": "tuple[]"
                }
            ],
            "stateMutability": "view",
            "type": "function"
        },
        {
            "inputs": [],
            "name": "getTotalWaves",
            "outputs": [
                {
                    "internalType": "uint256",
                    "name": "",
                    "type": "uint256"
                }
            ],
            "stateMutability": "view",
            "type": "function"
        },
        {
            "inputs": [
                {
                    "internalType": "address",
                    "name": "",
                    "type": "address"
                }
            ],
            "name": "lastWavedAt",
            "outputs": [
                {
                    "internalType": "uint256",
                    "name": "",
                    "type": "uint256"
                }
            ],
            "stateMutability": "view",
            "type": "function"
        },
        {
            "inputs": [
                {
                    "internalType": "string",
                    "name": "_message",
                    "type": "string"
                }
            ],
            "name": "wave",
            "outputs": [],
            "stateMutability": "nonpayable",
            "type": "function"
        }
    ],
    "bytecode": "0x60806040526200004f6040518060400160405280601881526020017f57652068617665206265656e20636f6e737472756374656400000000000000008152506200005560201b620006891760201c565b620001e9565b620000f5816040516024016200006c919062000162565b6040516020818303038152906040527f41304fac000000000000000000000000000000000000000000000000000000007bffffffffffffffffffffffffffffffffffffffffffffffffffffffff19166020820180517bffffffffffffffffffffffffffffffffffffffffffffffffffffffff8381831617835250505050620000f860201b60201c565b50565b60008151905060006a636f6e736f6c652e6c6f679050602083016000808483855afa5050505050565b60006200012e8262000186565b6200013a818562000191565b93506200014c818560208601620001a2565b6200015781620001d8565b840191505092915050565b600060208201905081810360008301526200017e818462000121565b905092915050565b600081519050919050565b600082825260208201905092915050565b60005b83811015620001c2578082015181840152602081019050620001a5565b83811115620001d2576000848401525b50505050565b6000601f19601f8301169050919050565b6112c480620001f96000396000f3fe608060405234801561001057600080fd5b506004361061004c5760003560e01c8063449d46c0146100515780639a2cdc081461006d578063a42a46631461008b578063bd43a908146100bb575b600080fd5b61006b60048036038101906100669190610a6b565b6100d9565b005b6100756104d5565b6040516100829190610e1d565b60405180910390f35b6100a560048036038101906100a09190610a42565b610520565b6040516100b29190610e1d565b60405180910390f35b6100c3610538565b6040516100d09190610cd4565b60405180910390f35b4261012c600360003373ffffffffffffffffffffffffffffffffffffffff1673ffffffffffffffffffffffffffffffffffffffff168152602001908152602001600020546101279190610f2f565b10610167576040517f08c379a000000000000000000000000000000000000000000000000000000000815260040161015e90610dfd565b60405180910390fd5b42600360003373ffffffffffffffffffffffffffffffffffffffff1673ffffffffffffffffffffffffffffffffffffffff168152602001908152602001600020819055506000808154809291906101bd90611066565b91905055506102026040518060400160405280601781526020017f25732077617665642120772f206d6573736167652025730000000000000000008152503383610722565b600260405180606001604052803373ffffffffffffffffffffffffffffffffffffffff16815260200183815260200142815250908060018154018082558091505060019003906000526020600020906003020160009091909190915060008201518160000160006101000a81548173ffffffffffffffffffffffffffffffffffffffff021916908373ffffffffffffffffffffffffffffffffffffffff16021790555060208201518160010190805190602001906102c1929190610922565b506040820151816002015550506000606460015442446102e19190610f2f565b6102eb9190610f2f565b6102f591906110af565b90506103366040518060400160405280601681526020017f52616e646f6d20232067656e6572617465643a20257300000000000000000000815250826107c1565b806001819055506032811015610481576103856040518060400160405280600781526020017f257320776f6e21000000000000000000000000000000000000000000000000008152503361085d565b600064e8d4a510009050478111156103d2576040517f08c379a00000000000000000000000000000000000000000000000000000000081526004016103c990610dbd565b60405180910390fd5b60003373ffffffffffffffffffffffffffffffffffffffff16826040516103f890610cbf565b60006040518083038185875af1925050503d8060008114610435576040519150601f19603f3d011682016040523d82523d6000602084013e61043a565b606091505b505090508061047e576040517f08c379a000000000000000000000000000000000000000000000000000000000815260040161047590610ddd565b60405180910390fd5b50505b3373ffffffffffffffffffffffffffffffffffffffff167f5f7e16dc676677766a70e9c5628aa6c54ddb8b6e5188e2ae1e1f17f1ffbea71642846040516104c9929190610e38565b60405180910390a25050565b60006105186040518060400160405280601781526020017f5765206861766520256420746f74616c207761766573210000000000000000008152506000546107c1565b600054905090565b60036020528060005260406000206000915090505481565b60606002805480602002602001604051908101604052809291908181526020016000905b8282101561068057838290600052602060002090600302016040518060600160405290816000820160009054906101000a900473ffffffffffffffffffffffffffffffffffffffff1673ffffffffffffffffffffffffffffffffffffffff1673ffffffffffffffffffffffffffffffffffffffff1681526020016001820180546105e590611003565b80601f016020809104026020016040519081016040528092919081815260200182805461061190611003565b801561065e5780601f106106335761010080835404028352916020019161065e565b820191906000526020600020905b81548152906001019060200180831161064157829003601f168201915b505050505081526020016002820154815250508152602001906001019061055c565b50505050905090565b61071f8160405160240161069d9190610cf6565b6040516020818303038152906040527f41304fac000000000000000000000000000000000000000000000000000000007bffffffffffffffffffffffffffffffffffffffffffffffffffffffff19166020820180517bffffffffffffffffffffffffffffffffffffffffffffffffffffffff83818316178352505050506108f9565b50565b6107bc83838360405160240161073a93929190610d48565b6040516020818303038152906040527fe0e9ad4f000000000000000000000000000000000000000000000000000000007bffffffffffffffffffffffffffffffffffffffffffffffffffffffff19166020820180517bffffffffffffffffffffffffffffffffffffffffffffffffffffffff83818316178352505050506108f9565b505050565b61085982826040516024016107d7929190610d8d565b6040516020818303038152906040527f9710a9d0000000000000000000000000000000000000000000000000000000007bffffffffffffffffffffffffffffffffffffffffffffffffffffffff19166020820180517bffffffffffffffffffffffffffffffffffffffffffffffffffffffff83818316178352505050506108f9565b5050565b6108f58282604051602401610873929190610d18565b6040516020818303038152906040527f319af333000000000000000000000000000000000000000000000000000000007bffffffffffffffffffffffffffffffffffffffffffffffffffffffff19166020820180517bffffffffffffffffffffffffffffffffffffffffffffffffffffffff83818316178352505050506108f9565b5050565b60008151905060006a636f6e736f6c652e6c6f679050602083016000808483855afa5050505050565b82805461092e90611003565b90600052602060002090601f0160209004810192826109505760008555610997565b82601f1061096957805160ff1916838001178555610997565b82800160010185558215610997579182015b8281111561099657825182559160200191906001019061097b565b5b5090506109a491906109a8565b5090565b5b808211156109c15760008160009055506001016109a9565b5090565b60006109d86109d384610e8d565b610e68565b9050828152602081018484840111156109f057600080fd5b6109fb848285610fc1565b509392505050565b600081359050610a1281611277565b92915050565b600082601f830112610a2957600080fd5b8135610a398482602086016109c5565b91505092915050565b600060208284031215610a5457600080fd5b6000610a6284828501610a03565b91505092915050565b600060208284031215610a7d57600080fd5b600082013567ffffffffffffffff811115610a9757600080fd5b610aa384828501610a18565b91505092915050565b6000610ab88383610c51565b905092915050565b610ac981610f85565b82525050565b610ad881610f85565b82525050565b6000610ae982610ece565b610af38185610ef1565b935083602082028501610b0585610ebe565b8060005b85811015610b415784840389528151610b228582610aac565b9450610b2d83610ee4565b925060208a01995050600181019050610b09565b50829750879550505050505092915050565b6000610b5e82610ed9565b610b688185610f0d565b9350610b78818560208601610fd0565b610b818161119c565b840191505092915050565b6000610b9782610ed9565b610ba18185610f1e565b9350610bb1818560208601610fd0565b610bba8161119c565b840191505092915050565b6000610bd2603483610f1e565b9150610bdd826111ad565b604082019050919050565b6000610bf5602783610f1e565b9150610c00826111fc565b604082019050919050565b6000610c18600083610f02565b9150610c238261124b565b600082019050919050565b6000610c3b600783610f1e565b9150610c468261124e565b602082019050919050565b6000606083016000830151610c696000860182610ac0565b5060208301518482036020860152610c818282610b53565b9150506040830151610c966040860182610ca1565b508091505092915050565b610caa81610fb7565b82525050565b610cb981610fb7565b82525050565b6000610cca82610c0b565b9150819050919050565b60006020820190508181036000830152610cee8184610ade565b905092915050565b60006020820190508181036000830152610d108184610b8c565b905092915050565b60006040820190508181036000830152610d328185610b8c565b9050610d416020830184610acf565b9392505050565b60006060820190508181036000830152610d628186610b8c565b9050610d716020830185610acf565b8181036040830152610d838184610b8c565b9050949350505050565b60006040820190508181036000830152610da78185610b8c565b9050610db66020830184610cb0565b9392505050565b60006020820190508181036000830152610dd681610bc5565b9050919050565b60006020820190508181036000830152610df681610be8565b9050919050565b60006020820190508181036000830152610e1681610c2e565b9050919050565b6000602082019050610e326000830184610cb0565b92915050565b6000604082019050610e4d6000830185610cb0565b8181036020830152610e5f8184610b8c565b90509392505050565b6000610e72610e83565b9050610e7e8282611035565b919050565b6000604051905090565b600067ffffffffffffffff821115610ea857610ea761116d565b5b610eb18261119c565b9050602081019050919050565b6000819050602082019050919050565b600081519050919050565b600081519050919050565b6000602082019050919050565b600082825260208201905092915050565b600081905092915050565b600082825260208201905092915050565b600082825260208201905092915050565b6000610f3a82610fb7565b9150610f4583610fb7565b9250827fffffffffffffffffffffffffffffffffffffffffffffffffffffffffffffffff03821115610f7a57610f796110e0565b5b828201905092915050565b6000610f9082610f97565b9050919050565b600073ffffffffffffffffffffffffffffffffffffffff82169050919050565b6000819050919050565b82818337600083830152505050565b60005b83811015610fee578082015181840152602081019050610fd3565b83811115610ffd576000848401525b50505050565b6000600282049050600182168061101b57607f821691505b6020821081141561102f5761102e61113e565b5b50919050565b61103e8261119c565b810181811067ffffffffffffffff8211171561105d5761105c61116d565b5b80604052505050565b600061107182610fb7565b91507fffffffffffffffffffffffffffffffffffffffffffffffffffffffffffffffff8214156110a4576110a36110e0565b5b600182019050919050565b60006110ba82610fb7565b91506110c583610fb7565b9250826110d5576110d461110f565b5b828206905092915050565b7f4e487b7100000000000000000000000000000000000000000000000000000000600052601160045260246000fd5b7f4e487b7100000000000000000000000000000000000000000000000000000000600052601260045260246000fd5b7f4e487b7100000000000000000000000000000000000000000000000000000000600052602260045260246000fd5b7f4e487b7100000000000000000000000000000000000000000000000000000000600052604160045260246000fd5b6000601f19601f8301169050919050565b7f547279696e6720746f207769746864726177206d6f7265206d6f6e657920746860008201527f616e2074686520636f6e7472616374206861732e000000000000000000000000602082015250565b7f4661696c656420746f207769746864726177206d6f6e65792066726f6d20636f60008201527f6e74726163742e00000000000000000000000000000000000000000000000000602082015250565b50565b7f5761697420356d00000000000000000000000000000000000000000000000000600082015250565b61128081610f85565b811461128b57600080fd5b5056fea26469706673582212205fdb892c21ffddbaf45a9421cca4a47853c13106609f7b457f126a3f9b4e38ce64736f6c63430008040033",
    "linkReferences": {},
    "deployedLinkReferences": {}
}